:020000040000FA
:100000000C9499050C94CA050C94CA050C94CA0565
:100010000C94CA050C94CA050C94CA050C94CA0524
:100020000C94CA050C94CA050C94CA050C947C3136
:100030000C94CA050C94CA050C94CA050C94CA0504
:100040000C94CA050C94CA050C94CA050C94CA05F4
:100050000C94E0310C94CA050C94CA050C940E3033
:100060000C94CA050C94E42F0C94BA2F0C94CA0576
:100070000C94CA050C94CA050C94CA050C94CA05C4
:100080000C94CA050C94CA050C94CA050C94CA05B4
:100090000C94902F0C94662F0C94CA050C94583035
:1000A0000C94CA050C94CA050C94CA050C94CA0594
:1000B0000C94CA050C94CA050C94CA050C94CA0584
:1000C0000C94CA050C94CA050C94CA050C943C2FD8
:1000D0000C94122F0C94CA050C94E82E0C94BE2E8E
:1000E0000C94CA050C941B080C94650A0C948E0B96
:1000F0000C94E5070C9404080C941C080C94DD0B7C
:100100000C94D5060C94CF0D0C94A0080C94490CBB
:100110000C947E1A0C945E060C94710B0C94520A8B
:100120000C94430A0C94CE050C94F6070C94ED073E
:100130000C94960B0C94CC050C94AC1A0C94780788
:100140000C940E080C94B3060C9420060C94181A08
:100150000C942B070C94C7060C94F9190C940808FE
:100160000C94262C0C942C1B0C94F0070C94920BE2
:100170000C94990A0C94E1070C9445320C94581A8B
:100180000C9412080C949E0B0C94860B0C94200873
:100190000C94A4060C94F61A0C94DB070C9400083B
:1001A0000C94420A0C94E9070C949A0B0C948A0B59
:1001B0000C94370C0C946C0A0C9416080C94CD0516
:1001C0000C94FA07546F6F206D616E79206C6F6329
:1001D0006F73004175746F2050726F6720706F7776
:1001E0006572206F6E0043616C6C6261636B2825E1
:1001F0006429004175746F204A4F494E004175745F
:100200006F2050726F6720706F776572206F66661F
:10021000004F46462033306D5300537461626C6565
:10022000203130306D530052696E675374726561CE
:100230006D2825642920636F6D6D697428256429F4
:10024000204F564552464C4F57003C7225647C2542
:10025000647C25642025643E0A003C7225647C256C
:10026000647C25642025642025643E0A003C7620B9
:1002700025642025642025643E0A003C7620256400
:100280002025643E0A003C7225647C25647C25643C
:100290002025643E0A003C722025643E0A003C771B
:1002A0002025643E0A005369676E616C2070696E98
:1002B00020636F6E6669673A206E6F726D616C20A5
:1002C00061636375726163792077617665666F72C9
:1002D0006D005369676E616C2070696E20636F6E8C
:1002E0006669673A2068696768206163637572614F
:1002F00063792077617665666F726D0050524F4763
:10030000004D41494E002A2A2A20255320545241AB
:10031000434B20504F57455220524553455420647B
:10032000656C61793D2564202A2A2A0050524F4786
:10033000004D41494E002A2A2A202553205452417B
:10034000434B20504F574552204F5645524C4F413A
:10035000442063757272656E743D2564206D61780A
:100360003D256420206F666674696D653D256420B7
:100370002A2A2A0050524F47004D41494E002A2A4E
:100380002A202553204641554C542050494E2041A7
:100390004354495645202D204F5645524C4F414419
:1003A000202A2A2A0050524F47004D41494E002A28
:1003B0002A2A20434F4D4D4F4E204641554C542044
:1003C00050494E20414354495645202D20544F4713
:1003D000474C454420504F574552206F6E202553BF
:1003E000202A2A2A003C25632025643E0A00202A70
:1003F0003E0A003C2A2000202A3E0A003C2A204CCB
:10040000434425643A005C005C74005C30005C721C
:10041000005C6E0000002100240027002A002D004F
:100420003000330001010000040107010A013461BA
:100430003235313364004D45474100332E312E3083
:10044000005265616479005354414E444152445F07
:100450004D4F544F525F534849454C4400537461CB
:100460007274696E6700332E312E30004443432B83
:100470002B2045582B5350454544207625530021C9
:10048000212061636B4F70202564204641554C54F8
:100490002121005625642063763D2564206269741D
:1004A0003D25640056422063763D25642076616CCC
:1004B00075653D25640057422063763D25642076AE
:1004C000616C75653D2564005725642063763D2584
:1004D00064206269743D256400467265652052415E
:1004E0004D3D253564620041434B20626173656C6C
:1004F000696E653D25642F25646D412054687265E1
:1005000073686F6C643D25642F25646D41204475CC
:10051000726174696F6E206265747765656E2025FF
:1005200064757320616E642025647573004E4F2DD1
:1005300041434B0041434B00255320616674657273
:100540002025646D53206D61783D25642F25646DF1
:10055000412070756C73653D256475532073616D22
:10056000706C65733D256420676170733D25640080
:1005700000000A0B02090C0D0E080703040100001D
:10058000000000000000000000000000000000006B
:100590000000000000000000000000001211100028
:1005A000000000000000000000000000000000004B
:1005B0000000000000003C25632025643E0A002561
:1005C0006420202020202578202020202563004141
:1005D0006464722020307820206368617200557353
:1005E00065643D25642C206D61783D25640A0063B7
:1005F00061623D25642C2073706565643D25642C23
:10060000206469723D2563200A003132382053701E
:100610006565647374657073003238205370656566
:10062000647374657073006F6666006F6E0041637B
:100630006B20646961672025530A0041636B206D5C
:1006400061783D256475730A0041636B206D696EA6
:100650003D256475730A0041636B206C696D697494
:100660003D25646D410A0046726565206D656D6FBC
:1006700072793D25640A003C592025642025643E9A
:100680000A003C482025642025643E0A000011131E
:10069000120004071712800407170E05070F05073D
:1006A0000F05070F05070F05070F05070F05070FB4
:1006B00005070F04070BFF111D1005050717111182
:1006C0000E05070F05070F05070F05070F05070F95
:1006D00005070F05070F05070F04070C1511120E6C
:1006E00005070F05070F05070F05070F05070F057E
:1006F000070F05070F05070F04070C16FF11010E62
:10070000100605070F05070F05070F05070F05075B
:100710000F05070F05070F04070A0D000E05070F49
:1007200017100706070C1006FF05070F05070F0532
:10073000070F05070F05070F05070F05070F04072C
:100740000A0D0001070507080D0002070607080D3E
:10075000000507090607080D000607080507090D2B
:100760000004070A0E05070F17100706070C1006EE
:10077000FF05070F05070F05070F05070F05070FF3
:1007800005070F05070F04070A0D000307080407F4
:10079000080D00111312000307111D1005020706B2
:1007A000070C111113030704070C1112140307049B
:1007B00007080D00111312000307111D1005010792
:1007C00005070C110114030704070A0D3C512025ED
:1007D000642025642025643E0A003C4F3E0A003C0C
:1007E0004F3E0A003C5920256420256420256420C2
:1007F00025643E0A003C4F3E0A003C4F3E0A003C46
:10080000592025642025643E0A004932432053655F
:1008100072766F206465766963652030782578206C
:100820004E6F7420466F756E6420256400536574A6
:10083000536572766F206572726F72202564005363
:100840006574536572766F202564202564003C4FE3
:100850003E0A003C482025642025643E0A003C4FA7
:100860003E0A003C4820256420256420256420257C
:10087000643E0A003C583E0A00705B25645D3D25DD
:100880006420283078257829004F70636F64653DB7
:10089000256320706172616D733D2564003C4F3E9D
:1008A0000A003C4F3E0A004F4646004F4E0053653B
:1008B0007474696E67206C6F636F20256420462511
:1008C00064202553003C232025643E0A003C4F3E13
:1008D0000A003C652025642025642025643E0A002A
:1008E00034613235313364004D45474100332E3198
:1008F0002E30003C694443432D45582B5350454509
:100900004420562D2553202F202553202F202553BA
:1009100020472D25533E0A003C7025643E0A003CCA
:10092000612025643E0A003C632043757272656E47
:10093000744D41494E2025642043204D696C6C69FB
:10094000203020256420312025643E0A003C703090
:100950003E0A003C7031204A4F494E3E0A003C702E
:1009600025632050524F473E0A003C702563204DBE
:1009700041494E3E0A003C7025633E0A00706163A7
:100980006B65745B25645D3D25642028307825788F
:1009900029003C4F3E0A003C542025642025642059
:1009A00025643E0A0050415253494E473A25730090
:1009B00042756666657220666C7573680001021088
:1009C0002020080810204010204080020102010869
:1009D0000402010102040810204080804020100819
:1009E0000402018004020180402010080402010872
:1009F00004020101020408102040800102040810D2
:100A000020408000002200250028002B002E00310D
:100A100000340002010000050108010B0100002064
:100A2000002300260029002C002F003200000100C6
:100A30000003010601090105050505070508080869
:100A400008020202020A0A0808040404040101015F
:100A50000101010101030303030303030304070767
:100A6000070C0C0C0C0C0C0C0C0202020206060605
:100A700006060606060B0B0B0B0B0B0B0B4D6F74D0
:100A80006F724472697665722063757272656E74F6
:100A900050696E3D4125642C2073656E73654F6609
:100AA000667365743D25642C2072617743757265A9
:100AB0006E745472697056616C75652872656C61EC
:100AC0007469766520746F206F6666736574293D5E
:100AD0002564004D6F746F72447269766572202AC6
:100AE0002A205741524E494E47202A2A204E6F2035
:100AF00063757272656E74206F722073686F7274A2
:100B000020646574656374696F6E003C6944434397
:100B10002D45582B535045454420562D2553202F05
:100B2000202553202F20255320472D25533E0A00F2
:100B3000453211241FBECFEFD1E2DEBFCDBF00E0B2
:100B40000CBF12E0A0E0B2E0EEEBF3E800E00BBF78
:100B500002C007900D92A039B107D9F728E0A0E9AB
:100B6000B2E001C01D92A03CB207E1F715E0C9E96F
:100B7000D5E000E006C021970109802FFE010E9408
:100B8000913EC839D10780E00807A9F70E940C33CD
:100B90000C94DD410C94000008950895CF93DF93E9
:100BA000EC01072E000C880B990B0E94153D2E8D31
:100BB0003F8D48A159A10E94CA3D0E94E43CCB014F
:100BC000DF91CF9108952FB7F894609153037091FE
:100BD000540380915503909156032FBF089580913F
:100BE000FD078111089510922F0810922E0810927F
:100BF00038081092390810923A0810923B08109267
:100C0000370810923608109229082FB7F89480916F
:100C1000530390915403A0915503B09156032FBFF5
:100C20008093300890933108A0933208B093330832
:100C3000109257031092580381E08093280808957A
:100C4000CF93DF93EC0190E080E00E94133D2E8D66
:100C50003F8D48A159A10E946B3C0E94DD3CCB0115
:100C6000DF91CF910895DC01ED91FC910190F0812D
:100C7000E02D1994EF92FF920F931F93CF93DF9380
:100C80008C017B01D0E0C0E0F701EC0FFD1F649107
:100C9000662361F0D801ED91FC910190F081E02D87
:100CA000C8011995892B11F02196EECFCE01DF9165
:100CB000CF911F910F91FF90EF900895AF92BF9247
:100CC000CF92DF92EF92FF920F931F93CF93DF9318
:100CD0006C017B018B01040F151FEB015E01AE1847
:100CE000BF08C017D10759F06991D601ED91FC9169
:100CF0000190F081E02DC6011995892B79F7C50186
:100D0000DF91CF911F910F91FF90EF90DF90CF90E7
:100D1000BF90AF900895FC01A089B1898C91A689FC
:100D2000B78982FD0FC09C91818D8F5F8F73228D5B
:100D3000821749F0A18DAE0FBF2FB11D5D969C9318
:100D4000818F08958C910895FC01538D448D252F3A
:100D500030E0842F90E0821B930B541710F0CF9655
:100D6000089501970895FC01918D828D981761F087
:100D7000A28DAE0FBF2FB11D5D968C91928D9F5F9E
:100D80009F73928F90E008958FEF9FEF0895FC017D
:100D9000918D828D981731F0828DE80FF11D858D30
:100DA00090E008958FEF9FEF0895FC01918D228DC3
:100DB000892F90E0805C9F4F821B91098F73992748
:100DC000089584E795E00E94D50621E0892B09F477
:100DD00020E0822F089581E196E00E94D50621E06F
:100DE000892B09F420E0822F08958EEA96E00E9474
:100DF000D50621E0892B09F420E0822F08958BE4A9
:100E000097E00E94D50621E0892B09F420E0822F8B
:100E10000895FC01A48DA80FB92FB11DA35ABF4F8F
:100E20002C91848D90E001968F739927848FA689E9
:100E3000B7892C93A089B1898C91837080648C933D
:100E4000938D848D981306C00288F389E02D8081EC
:100E50008F7D80830895EF92FF920F931F93CF931E
:100E6000DF93EC0181E0888F9B8D8C8D98131AC0E5
:100E7000E889F989808185FF15C09FB7F894EE89CC
:100E8000FF896083E889F989808183708064808329
:100E90009FBF81E090E0DF91CF911F910F91FF9074
:100EA000EF900895F62E0B8D10E00F5F1F4F0F731C
:100EB0001127E02E8C8D8E110CC00FB607FCFACFD7
:100EC000E889F989808185FFF5CFCE010E94090765
:100ED000F1CFEB8DEC0FFD2FF11DE35AFF4FF082A8
:100EE0009FB7F8940B8FEA89FB8980818062CFCF0E
:100EF000CF93DF93EC01888D8823B9F0AA89BB8951
:100F0000E889F9898C9185FD03C0808186FD0DC03B
:100F10000FB607FCF7CF8C9185FFF2CF808185FF5C
:100F2000EDCFCE010E940907E9CFDF91CF9108955F
:100F300080E090E0892B29F00E94FF0681110E9439
:100F4000000080E090E0892B29F00E94F5068111D5
:100F50000E94000080E090E0892B29F00E94EB06BF
:100F600081110E94000080E090E0892B29F00E940E
:100F7000E10681110C94000008958150823108F03F
:100F80005AC0E82FF0E08827E753F84F8F4F0C94B2
:100F9000913EE907ED07DB07E107E5071B08F007CE
:100FA000F607FA070008040808080E0812081B08CC
:100FB00016081C082008809180008F77809380009D
:100FC0000895809180008F7DF9CF80918000877F88
:100FD000F5CF84B58F7784BD089584B58F7DFBCF21
:100FE0008091B0008F778093B00008958091B00019
:100FF0008F7DF9CF809190008F7780939000089536
:10100000809190008F7DF9CF80919000877FF5CF00
:101010008091A0008F778093A00008958091A00018
:101020008F7DF9CF8091A000877FF5CF809120013F
:101030008F77809320010895809120018F7DF9CFD3
:1010400080912001877FF5CF1F93CF93DF93282FC7
:1010500030E0F901E059FA4F8491F901E354F64F79
:10106000D491F901E95CF54FC491CC23A9F0162F76
:1010700081110E94BD07EC2FF0E0EE0FFF1FED5F26
:10108000F54FA591B4918FB7F894EC91111108C068
:10109000D095DE23DC938FBFDF91CF911F91089510
:1010A000DE2BF8CFCF93DF9390E0FC01E354F64FB3
:1010B0002491895C954FFC0184918823D1F090E0C4
:1010C000880F991FFC01EC5EFB4FA591B491FC01C8
:1010D000ED5FF54FC591D49161110EC09FB7F894A3
:1010E0008C91E22FE0958E238C932881E223E88374
:1010F0009FBFDF91CF9108958FB7F894EC91E22BC9
:10110000EC938FBFF6CF863308F0865320917B0097
:10111000982F9870277F922B90937B008770806424
:1011200080937C0080917A00806480937A00809123
:101130007A0086FDFCCF8091780090917900089527
:10114000CF93DF93EC018D8130E020E08F3721F1E8
:101150000E948308BC014AA15BA19C01241B350BA2
:1011600037FF03C03195219531098E818F37A1F06A
:10117000E88DF98D90818A8D982371F4E885F98541
:1011800090818A85982341F0319521953109641722
:10119000750711F42FEF3FEFC901DF91CF9108954B
:1011A0003FB7F8948091080390910903A0910A0336
:1011B000B0910B0326B5A89B05C02F3F19F00196EF
:1011C000A11DB11D3FBFBA2FA92F982F8827BC01A1
:1011D000CD01620F711D811D911D42E0660F771FC9
:1011E000881F991F4A95D1F708952091E402260F90
:1011F0003327331F21323105ECF420913005FC01F7
:1012000090E080E0243069F082E00895A091E4024B
:101210002191AC014C535D4FA40FB52FB11D2C9300
:101220000196861798F38091E402680F6093E402B8
:1012300080E0089581E008951092300581E0809368
:101240002F0510920A0561E084E10E94240861E004
:1012500085E10E942408E9EBF0E080818E7F8083A5
:1012600080818D7F808388E48093B80085E48093BB
:10127000BC000895CF93DF9391E09093C30288233D
:10128000B9F0C091B800D091BA008091BC008A7BBF
:101290008093BC0060E084E10E94240860E085E166
:1012A0000E9424080E941C09D093BA00C093B80081
:1012B000DF91CF910895CF92DF92EF92FF920F933B
:1012C0001F93CF93DF93D091590581E0D13208F07D
:1012D0009CC0C09158050E94D0086B017C01809190
:1012E000300581116CC082E08093300581E08093ED
:1012F0002F058FEF80932E0510922D05D0932C058E
:10130000A8E3B5E0ECE0F5E080E0D8138DC01092E2
:101310000B0580910B05CC0FC82BC0930B0580915A
:101320000A05813009F084C010920A050E94D00895
:101330006B017C0180910B058093BB00809132058D
:1013400090913305A0913405B0913505892B8A2BF6
:101350008B2BA1F00E94D00800913205109133052B
:1013600020913405309135056C197D098E099F094E
:10137000061717072807390708F442C08091BC00F8
:1013800083FDD8CF85EC8093BC000E94D0086B0110
:101390007C0180913005823009F44CC080912E058B
:1013A0008F3F09F469C080912E05803209F466C030
:1013B00080912E05803309F463C084E026C08091BB
:1013C000320590913305A0913405B0913505892BF4
:1013D0008A2B8B2B09F483CF0E94D0080091320511
:1013E0001091330520913405309135056C197D0934
:1013F0008E099F09061717072807390708F06FCFCE
:10140000809131050E943A0985E0109237051092CB
:10141000590510923605DF91CF911F910F91FF90E2
:10142000EF90DF90CF9008959D9191938F5F6DCF56
:1014300085EEA9CF8091320590913305A0913405B6
:10144000B0913505892B8A2B8B2B09F4A2CF0E94F2
:10145000D008009132051091330520913405309168
:1014600035056C197D098E099F090617170728078E
:10147000390708F08ECFC4CF80E0C7CF82E0C5CF58
:1014800083E0C3CF0895E091FF048091FE04E81744
:1014900030F4F0E0ED55FD4F808190E008958FEF3E
:1014A0009FEF08959091FF048091FE042FEF3FEF8E
:1014B000981748F4E92FF0E0ED55FD4F208130E01A
:1014C0009F5F9093FF04C90108958091FE0490915D
:1014D000FF04891B990B0895CF92DF92EF92FF9240
:1014E0000F931F93CF93DF937C01CB018A0120914F
:1014F0003605222389F0EB016B01C40ED51ECC15F5
:10150000DD0569F06991D701ED91FC910190F081C1
:10151000E02DC7011995F3CF642F0E94F508C8018B
:10152000DF91CF911F910F91FF90EF90DF90CF90BF
:101530000895CF93DF931F92CDB7DEB769832091D3
:1015400036052223F9F020915905203258F021E088
:1015500030E0FC013383228390E080E00F90DF9144
:10156000CF91089580913705E82FF0E0E85CFA4FBD
:10157000998190838F5F809337058093590581E02F
:1015800090E0ECCF61E0CE0101960E94F508F7CF24
:10159000009759F0FC013197339710F082E090E00A
:1015A000019790931B0380931A036115710521F035
:1015B0007093A2026093A1024115510541F057FFBB
:1015C00002C047E550E050933E0340933D03211590
:1015D0003105A1F0293E83E0380710F020E530E026
:1015E000B901330F880B990B0E94153D60933F039F
:1015F00070934003809341039093420380911A03B8
:1016000090911B03892B31F481E090E090931B03B0
:1016100080931A038091A1029091A202892B31F448
:101620008FE090E09093A2028093A10280913D030D
:1016300090913E03892B31F487E590E090933E032F
:1016400080933D0320E030E0A90160913F03709159
:10165000400380914103909142030E94663C8111B6
:101660000CC080E090E0A0EAB2E480933F03909346
:101670004003A0934103B093420380911A039091D9
:101680001B0301964AEF489F9001499F300D11249A
:1016900030934E0320934D034FE0489F9001499FA4
:1016A000300D112430934C0320934B03809168003C
:1016B000846080936800E091A102F091A2023897C3
:1016C000E830F10598F48827E759F44F8F4F0C94D0
:1016D000913E710B860B8A0B8E0B920B960B9A0B1D
:1016E0009E0B80916D00816080936D0080916D00F4
:1016F000816080936D0010923C03EEE1F3E0119263
:10170000119283E0EC33F807D1F7089580916D00D2
:101710008260EACF80916D008460E6CF80916D0099
:101720008860E2CF80916D008061DECF80916D0096
:101730008062DACF80916D008064D6CF80916D0099
:101740008068D2CF0097E9F06A3071F034F46623F4
:1017500091F0693099F00C9433066D3049F06C3596
:10176000D1F766E074E002C061E174E00C943A06DF
:101770006EE074E0FBCF6BE074E0F8CF68E074E0FB
:10178000F5CF0895CF93DF93EC01E881F9810480D0
:10179000F581E02D61E01995E881F9810480F581FA
:1017A000E02D60E0CE011995E885F98580819A8564
:1017B000892B8083DF91CF910895FC0180919C0259
:1017C0008823B9F183818B3081F480918000806817
:1017D0008093800080E094E0611102C090E080E09E
:1017E000909389008093880008958C3081F48091D3
:1017F000800080628093800080E094E0611102C0EC
:1018000090E080E090938B0080938A0008958D3063
:1018100009F58091800088608093800080E094E0EA
:10182000611102C090E080E090938D0080938C0065
:101830000895A485B5858C91662369F09685892BDA
:101840008C93848D882331F0A089B1898C91938900
:1018500089238C930895978589238C93848D88237D
:10186000C9F3A089B1898C919289892BF2CFFC01AF
:1018700087818F3749F0A489B589858D861729F02E
:101880008C919689892B8C9308958C9197898923C3
:10189000FACFFC0161110C94C20BA085B1859C911B
:1018A000838589238C930895CF93DF93FC0131E1E5
:1018B000C8E0D0E021E084A1811119C08785082EFD
:1018C000000C990B389FD001399FB00D1124AE0F39
:1018D000BF1F95964C9141110AC00196BE010E940E
:1018E0003C3E878796859813E9CF24A3E4CFDF9108
:1018F000CF910895FC01463078F580818111FDCFAC
:1019000080E04423F1F0DB018C91838B4130C9F0FE
:1019100011969C9111978927948B423091F01296E1
:101920009C9112978927958B433059F013969C917F
:1019300013978927968B443021F014969C91892720
:10194000978BDF01A40FB11D53968C934F5F418F8E
:10195000228F81E0808311820895FC0161A3A4811C
:10196000B581ED91FC9111970190F081E02D8CE013
:10197000E934F80779F4613051F01896ED91FC9153
:10198000199780811B969C91892380830895CD01AE
:101990000C94C20B6170CD011994FC0181A10895D2
:1019A000CF93DF93C0916F05D09170058091710541
:1019B00090917205209719F160916E058E819F813B
:1019C0009C878B87E881F9810190F081E02DCE0121
:1019D0001995E881F9810190F081E02D60E0CE0158
:1019E0001995E881F9810190F081E02D60E0CE0148
:1019F00019951E861D8680916F0590917005DF9167
:101A0000CF91089580939B020895CF93DF931F9207
:101A10001F92CDB7DEB79C01317028173907F9F452
:101A2000862F837068131BC0C9018F739927805854
:101A30008983660F640F86E0359527958A95E1F7CF
:101A40002295207F620F48EF64276A8324E042E0FA
:101A5000BE016F5F7F4F80E498E00E947A0C0F9088
:101A60000F90DF91CF910895CF93DF9300D01F9215
:101A7000CDB7DEB79C0190E02038310524F0832FEC
:101A8000806C898391E0E1E0E90FA1E0B0E0AC0F68
:101A9000BD1FA90FB11D2C93662351F021E030E04A
:101AA0002C0F3D1F2E0F311DF9016083E2E0E90F7D
:101AB000A1E0B0E0AC0FBD1FAE0FB11D4C9341E0F3
:101AC0004E0F20E0BE016F5F7F4F80E498E00E94E0
:101AD0007A0C0F900F900F900F90DF91CF91089597
:101AE000CF93DF9300D01F92CDB7DEB7AC01262F86
:101AF00090E04038510520F0852F806C898391E07B
:101B0000E1E0F0E0EC0FFD1FE90FF11D4083E1E0A3
:101B1000E90FF0E042E0490F809106028D3180F537
:101B2000822F8F77823088F03AE0839FC0011124A2
:101B300084966EE270E00E943C3EDB011396B59500
:101B4000A79580E060FF80E18A2B61E070E06C0F78
:101B50007D1FE60FF71F2595259520722064822BA7
:101B6000808320E0BE016F5F7F4F80E498E00E9499
:101B70007A0C0F900F900F900F90DF91CF910895F6
:101B800061E070E06C0F7D1FE60FF71F8FE380832D
:101B9000FB01E40FF11D208343E0490FE2CF90E009
:101BA00080E0089520917305211115C021E0209354
:101BB00073059093720580937105109270051092D1
:101BC0006F0584E1FB01AAE5B5E001900D928A95CD
:101BD000E1F781E0089580E008950F931F93CF937C
:101BE000DF930091040510910505F801309749F045
:101BF0002081318182179307A1F00680F781E02DC3
:101C0000F5CFEC016AE070E081E090E00E94C33E15
:101C1000FC01068317839093050580930405D18307
:101C2000C08380910205909103050196909303056E
:101C300080930205CF01DF91CF911F910F910895FD
:101C4000AF92BF92CF92DF92FF920F931F93CF93E9
:101C5000DF935C01F62E6A010091F5041091F60401
:101C6000E8010115110559F568E070E081E090E0A8
:101C70000E94C33EEC019093F6048093F5042097F4
:101C800099F0B982A882FA8281E0C114D10409F4E2
:101C900080E08B831C821D8260E08F2D0E945208A1
:101CA0006C2D8F2D0E942408CE01DF91CF911F91C2
:101CB0000F91FF90DF90CF90BF90AF9008958881F3
:101CC0009981A816B906E9F20E80DF81C02D209710
:101CD000B1F7F80186819781009759F468E070E0C8
:101CE00081E090E00E94C33EEC01F8019783868377
:101CF000C6CF8C01EECF8F929F92AF92BF92DF92B0
:101D0000EF92FF920F931F93CF93DF935C01D62E38
:101D10008A014901E090F704F090F804E701E1142A
:101D2000F10409F568E070E081E090E00E94C33EB4
:101D3000EC019093F8048093F704209739F0A9827E
:101D4000DA820B838A94892849F11882CE01DF91C7
:101D5000CF911F910F91FF90EF90DF90BF90AF90C8
:101D60009F908F90089589818A151B0441F30C8000
:101D7000DD81C02D2097B9F7F70184819581009707
:101D800059F468E070E081E090E00E94C33EEC010D
:101D9000F70195838483D1CF7C01EECF60E001FF12
:101DA00006C0B801759567957595679561706883EC
:101DB000017060278D2D0E94240861E08A810E94B5
:101DC0005208C4CFFB0101900020E9F73197AF0121
:101DD000461B570BDC01ED91FC910280F381E02D55
:101DE00019948F929F92AF92BF92EF92FF920F93AE
:101DF0001F93CF93DF93CDB7DEB7A1970FB6F894BB
:101E0000DEBF0FBECDBF7C01FA01CB0119A222308B
:101E100008F42AE08E010F5D1F4F822E912CB12C09
:101E2000A12CBF01A50194010E94503EF901CA01F5
:101E30006A300CF5605DD8016E938D01232B242B45
:101E4000252B79F790E080E0109721F0BD01C701C4
:101E50000E94E20EA1960FB6F894DEBF0FBECDBF72
:101E6000DF91CF911F910F91FF90EF90BF90AF90B6
:101E70009F908F900895695CDECFCF92DF92EF92B2
:101E8000FF920F931F93CF93DF932A30310501F513
:101E90002AE077FF1DC06A017B01EC016DE20E9420
:101EA00033068C0144275527BA014C195D096E0988
:101EB0007F092AE0CE010E94F10E800F911FDF9171
:101EC000CF911F910F91FF90EF90DF90CF900895E9
:101ED000DF91CF911F910F91FF90EF90DF90CF9006
:101EE0000C94F10E9A01AB01770F660B770B0C94F3
:101EF0003D0F4F925F926F927F928F929F92AF921F
:101F0000BF92CF92DF92EF92FF920F93CF93DF9326
:101F10004C016A017B01A22E211116C02AE030E09B
:101F2000B701A601C401DF91CF910F91FF90EF900F
:101F3000DF90CF90BF90AF909F908F907F906F90E9
:101F40005F904F900C943D0F91E080E01C141D04B5
:101F50001E041F040CF490E0C92FD82FA70196018E
:101F60008AE0482E512C612C712C21153105410538
:101F7000510541F0CA01B901A30192010E94723ECC
:101F80002196F3CF002339F02AE030E0B701A60113
:101F9000C4010E943D0FB12CCA15DB0534F460E288
:101FA000C4010E9433062196F7CF002309F4B6CF6F
:101FB000DF91CF910F91FF90EF90DF90CF90BF9086
:101FC000AF909F908F907F906F905F904F9008950B
:101FD0006115710511F00C94E20E90E080E0089517
:101FE0002F923F924F925F926F927F928F929F9229
:101FF000AF92BF92CF92DF92EF92FF920F931F9317
:10200000CF93DF93EC011B015A01D12CC12C1AE0B4
:10201000F101EC0DFD1D6491662309F475C100E02A
:1020200020E0653229F0CE010E94330616C001E09F
:102030008FEFC81AD80AF101EC0DFD1DE491E336CB
:1020400009F489C050F5EA3350F4E03308F056C182
:10205000E53209F47EC0ED3251F3750185C0E335F8
:1020600009F4A5C0E23609F4C6C0E534B1F775013C
:10207000F2E0EF0EF11C209709F476C0F501A08084
:10208000B180F5010491602FCE010E94A20BFFEFF9
:10209000AF1ABF0A0111F5CF67C0EC3609F4A1C031
:1020A00008F045C0E53609F46FC008F48BC0E63689
:1020B000A1F67501F4E0EF0EF11CF501808091802E
:1020C000A280B380A5019401C501B4010E94373EEE
:1020D0006FE572E0811127C024013501E89477F89B
:1020E0002FEF3FEF4FE75FE7C301B2010E94373E9A
:1020F00081110CC02FEF3FEF4FE75FE7C301B20143
:102100000E94663C63E672E018166CF02FEF3FEF1A
:102110004FE75FE4C501B4010E94C53D18160CF0FD
:1021200081C067E672E0CE010E94E20E1DC0E33777
:1021300001F1E83709F46CC0EF3609F08ECF750174
:10214000F2E0EF0EF11CF5016081718148E050E092
:102150005BC065E268CF7501E2E0EE0EF11CF501AF
:102160006081CE010E943306FFEFCF1ADF0A5701CC
:102170004FCF7501F2E0EF0EF11CF5016081718126
:10218000CE010E94E80FF0CF7501F2E0EF0EF11CD6
:10219000209751F3F501A080B180F50101915F0115
:1021A000602FCE010E94A20B0111F7CFDDCF750188
:1021B00082E0E80EF11CF50160817181CE010E9480
:1021C0003A06D2CF7501F2E0EF0EF11CF501408125
:1021D0005181052E000C660B770BCE010E94790F02
:1021E000C3CF7501F4E0EF0EF11CF5014081518180
:1021F00062817381F2CF7501F2E0EF0EF11CF501FF
:102200006081718142E050E0CE010E94720FACCF3C
:102210007501F2E0EF0EF11CF5016081718140E182
:1022200050E0F2CF2FEF3FEF4FE75FECC501B40175
:102230000E94663C87FD75CF20E030E0A901C50112
:10224000B4010E94663C87FF08C06DE2CE010E9487
:102250003306B7FAB094B7F8B0942AE037ED43EA02
:102260005BE3C501B4010E94FA3B2B013C010E94D3
:10227000E43C4B015C010E94133D9B01AC01C30196
:10228000B2010E94F93B2B013C012AE0B501A401F7
:10229000CE010E94F10E6EE2CE010E94330620E0D4
:1022A00030E040E251E4C301B2010E94CA3D2B017B
:1022B0003C010E94E43C4B01B12CA12C2AE0B50169
:1022C000A401CE010E94F10EC501B4010E94133D8C
:1022D0009B01AC01C301B2010E94F93B20E030E058
:1022E00040E251E40E94CA3D0E94E43CAB0170E030
:1022F00060E02AE0CE010E94F10E36CFE053219F2C
:10230000E00D11242E2F94CEDF91CF911F910F91CC
:10231000FF90EF90DF90CF90BF90AF909F908F9005
:102320007F906F905F904F903F902F900895CF9344
:10233000DF93CDB7DEB7AE01465F5F4F6BE07BE06A
:102340008BE497E00E94F00FDF91CF910895CF9337
:10235000DF93CDB7DEB7AE01465F5F4F6885798505
:102360008E819F810E94F00FDF91CF910895EF92AF
:10237000FF920F931F93CF93DF938C01C091F504CD
:10238000D091F60485EEE82E83E0F82E209709F12F
:1023900001151105C1F0988129818C81811117C027
:1023A00081E72F939F931F928F93FF92EF921F933A
:1023B0000F930E94A7118DB79EB708960FB6F89499
:1023C0009EBF0FBE8DBF0E80DF81C02DDFCF81E5A8
:1023D000E8CFDF91CF911F910F91FF90EF9008957B
:1023E0000F931F93CF93DF93CDB7DEB71F928885EE
:1023F0008F938CEF93E09F938F930BE417E01F93E1
:102400000F930E94A711AE01455F5F4F69857A85E2
:10241000C8010E94F00F87EF93E09F938F931F9363
:102420000F930E94A7110FB6F894DEBF0FBECDBF69
:10243000DF91CF911F910F910895EF92FF920F932B
:102440001F93CF93DF93CDB7DEB78E01065F1F4F8B
:10245000F801E190F1908F0163EF73E08BE497E076
:102460000E943A06A801B7018BE497E00E94F00FA2
:102470006EEE73E08BE497E00E943A06DF91CF9115
:102480001F910F91FF90EF9008950F931F93CF939B
:10249000DF93EC01862F142F022F2FE232E03983D5
:1024A00028836A83262F30E0F901E95CF54FE49137
:1024B000F0E0EE0FFF1FED5FF54F45915491598706
:1024C0004887F901E354F64FE491EA87E095EB87FA
:1024D00061E00E9452081B83812F90E0FC01E95CBF
:1024E000F54FE491F0E0EE0FFF1FED5FF54F259102
:1024F00034913D872C87FC01E354F64FE491EE873D
:10250000E095EF8761E00E9452081FE71C831C8E54
:102510001F830D8360E0802F0E9452088D810E94EE
:1025200083088AA39BA31E8349E25CE56FE370E402
:102530004E8F5F8F68A379A320ED37E03DA32CA3D6
:102540002CE932E03FA32EA32D812F3769F483EDD0
:102550009AE09F938F930E941D120F900F90DF912E
:10256000CF911F910F91089532E03F933CE93F9343
:102570009F938F932653330B3F932F938DE79AE0CE
:102580009F938F930E941D128DB79EB708960FB62A
:10259000F8949EBF0FBE8DBFE2CFCF92DF92EF9235
:1025A000FF920F931F93CF93DF938091280881119F
:1025B00060C08091EB0481110BC080912908DF91EC
:1025C000CF911F910F91FF90EF90DF90CF900895E2
:1025D000C0905803D0905703F0903608E090370829
:1025E0000091FE071091FF07D801ED91FC91008446
:1025F000F185E02DC0912E08D0912F08B5E0EE3C7A
:10260000FB07E1F5BE010D2E000C880B990B0E9413
:10261000153DF801268D378D40A151A10E94CA3D7C
:102620000E94E43C409134085091350820912908DB
:10263000211121C02DE235E01F92CF921F92DF922F
:10264000EF92FF927F936F93DF93CF935F934F93BC
:102650003F932F9388E395E09F938F930E941D12E1
:10266000ADB7BEB750960FB6F894BEBF0FBEADBFA4
:10267000A4CF82E0A4CF24E335E0DECFBE01C801C1
:102680001995BC01C0912E08D0912F08CBCF6F9225
:102690007F928F929F92AF92BF92CF92DF92EF92F2
:1026A000FF920F931F93CF93DF938091FD078823B1
:1026B00079F0DF91CF911F910F91FF90EF90DF9014
:1026C000CF90BF90AF909F908F907F906F90089524
:1026D000C091FE07D091FF07A881B9811696ED91B0
:1026E000FC91179788E0E03AF80709F0B0C08D81B7
:1026F00010E000E08F3769F10E948308AC012AA145
:102700003BA18C01021B130B17FF03C01195019510
:1027100011098E818F3709F49DC0E88DF98D908164
:102720006091FE077091FF07FB01A081B1818A8D46
:10273000982371F488859985FC0180819A85892385
:1027400039F04217530709F4AAC0119501951109F0
:10275000EB011A96ED91FC9160912C0870912D0877
:1027600086E0E032F80709F07CC090E080E00E944B
:10277000133D2E8D3F8D48A159A10E946B3C0E94B4
:10278000DD3CEB01C00FD11FD0932B08C0932A086A
:102790008091EB04882309F48CCF70903E08609000
:1027A0003F0890903C0880903D08E090FE07F09034
:1027B000FF07D701ED91FC91A084B184BEECAB166C
:1027C000B5E0BB0609F051C0BE010D2E000C880B10
:1027D000990B0E94153DF701268D378D40A151A11F
:1027E0000E94CA3D0E94E43CD62EC72EBEECAB161A
:1027F000B5E0BB0609F04DC0B801012E000C880BF6
:10280000990B0E94153DF701268D378D40A151A1EE
:102810000E94CA3D0E94E43C6F927F928F929F92E9
:10282000CF92DF92DF93CF937F936F931F930F939A
:1028300087EE94E09F938F930E941D12ADB7BEB7B1
:102840001E960FB6F894BEBF0FBEADBF32CFCE01FD
:1028500019958C01C091FE07D091FF07A881B9811D
:1028600078CFCE011995EC018DCFBE01C701F501DE
:102870001995D82EC92EC0912A08D0912B08E09026
:10288000FE07F090FF07D701ED91FC91A084B18481
:10289000ADCFB801C701F5011995BC01BDCFEB0162
:1028A0000FEF1FEF56CFAF92BF92CF92DF92EF9212
:1028B000FF920F931F93CF93DF93C82F8FB7F89496
:1028C0004091530350915403609155037091560306
:1028D0008FBF8091620890916308A0916408B091C5
:1028E0006508481B590B6A0B7B0B80916608909119
:1028F0006708B0E0A0E0481759076A077B0770F542
:102900008FB7F8944091530350915403609155034D
:10291000709156038FBF80911C0890911D08A09163
:102920001E08B0911F08481B590B6A0B7B0B809146
:10293000200890912108B0E0A0E0481759076A07E5
:102940007B0708F06CC0DF91CF911F910F91FF9032
:10295000EF90DF90CF90BF90AF9008952FB7F8948D
:102960008091530390915403A0915503B091560365
:102970002FBF8093620890936308A0936408B0937C
:1029800065080091440810914508D8019696ED908D
:10299000FC9080914308811109C080919B028111B4
:1029A00005C08091F004882309F412C28091610867
:1029B000813009F453C108F49DC0823009F005C28A
:1029C00081E080936108D801ED91FC910190F08144
:1029D000E02DBCE0E934FB0709F0A3C3C8010E9465
:1029E000C20B84E690E0909367088093660880911C
:1029F00043088111F2C18CEF92E01F9224E62F93DD
:102A00009F938F9386E093E09F938F930E941D1274
:102A10000F900F900F900F900F900F9071CF2FB7D6
:102A2000F8948091530390915403A0915503B09171
:102A300056032FBF80931C0890931D08A0931E0877
:102A4000B0931F080091FE071091FF07F801E6A060
:102A5000F7A08091FD0781110EC0C1110CC08091BB
:102A60009B02811108C08091F004811104C0E090A4
:102A70009802F090990280911B08813009F441C0BE
:102A800090F1823009F0E7C081E080931B08D80103
:102A9000ED91FC910190F081E02DBCE0E934FB0761
:102AA00009F031C3C8010E94C20B84E690E0909304
:102AB0002108809320088091FD07811191C18CEF3E
:102AC00092E01F9224E62F939F938F9386E093E0EA
:102AD0009F938F930E941D120F900F900F900F9055
:102AE0000F900F9030CF88EE93E090932108809361
:102AF000200829CF88EE93E09093670880936608BA
:102B0000FFCED801ED91FC910680F781E02DB8E071
:102B1000E03AFB0709F009C3E8018D818F3709F41A
:102B200062C10E948308FC016AA17BA1AC01461B23
:102B3000570B57FF03C05195419551099A01E80180
:102B40008E818F3709F4B9C2A88DB98D9C918A8D79
:102B5000982309F0B2C2A885B9858C919A858923FA
:102B600009F4ABC2E617F70709F45FC33195219565
:102B700031093195219531093093160820931508B4
:102B800082E080931B08A091FE07B091FF07ED91B2
:102B9000FC9111970190F081E02DDCE0E934FD0714
:102BA00009F032C31896ED91FC91199780811B961C
:102BB0009C918923808380910805882309F4D1C1E1
:102BC0008091150890911608E816F9060CF0F4C2E9
:102BD0008091FD07882309F4E9C28AEA93E09F9374
:102BE0008F938FEA93E09F938F930E941D12209101
:102BF0001508309116080F900F900F900F902E151A
:102C00003F050CF0CCC184E690E0909321088093BE
:102C1000200880912608909127088436910508F4B1
:102C20005CC28091220890912308A0912408B09161
:102C300025084597A105B10508F485CE84E190E00B
:102C4000A0E0B0E08093220890932308A09324088A
:102C5000B093250878CE87EE93E047CFD801ED9169
:102C6000FC910680F781E02DB8E0E03AFB0709F01F
:102C70004EC2F80185818F3709F4BCC00E948308D9
:102C8000FC01D80192966D917C91AC01461B570BCB
:102C900057FF03C05195419551099A01D8011696E5
:102CA0008C9116978F3709F40DC258968D919C918F
:102CB000DC019C91D8015A968C915A97982309F07F
:102CC00001C218968D919C91DC018C91D8011A96C5
:102CD0009C91892309F4F6C1E617F70709F4A2C20B
:102CE00031952195310931952195310930935C0851
:102CF00020935B0882E080936108A0914408B09122
:102D00004508ED91FC9111970190F081E02DDCE0F8
:102D1000E934FD0709F07CC21896ED91FC911997F2
:102D200080811B969C91892380838091080588234C
:102D300009F467C080915B0890915C08E816F90679
:102D40000CF04EC280914308882309F429C28AEA14
:102D500093E09F938F938FEA93E09F938F930E94CA
:102D60001D1220915B0830915C080F900F900F901E
:102D70000F902E153F050CF062C084E690E0909312
:102D800067088093660880916C0890916D0884367E
:102D9000910508F49CC18091680890916908A09100
:102DA0006A08B0916B084597A105B10508F4A8CD54
:102DB00084E190E0A0E0B0E0809368089093690817
:102DC000A0936A08B0936B089BCD87EE93E094CEF6
:102DD000E0909802F0909902E9CD81E093E00DCE69
:102DE00081E093E06ECE109216081092150830E044
:102DF00020E005CF10925C0810925B0830E020E0E4
:102E0000B8CF80914308882309F4D3C189E793E0C0
:102E10009F938F938EE793E09F938F930E941D1251
:102E20000F900F900F900F9080915B0890915C082D
:102E30008E159F0524F4F0925C08E0925B0882E016
:102E400080936108A0914408B0914508ED91FC91F0
:102E500011970190F081E02DDCE0E934FD0709F0E5
:102E60009BC11896ED91FC91199780811B969C91BE
:102E7000892380830091440810914508D801ED9181
:102E8000FC91A084B18460915B0870915C08BEECF9
:102E9000AB16B5E0BB0609F070C1072E000C880B1D
:102EA000990B0E94153DF801268D378D40A151A147
:102EB0000E94CA3D0E94E43CD62FD72EBEECAB1632
:102EC000B5E0BB0609F053C1B701FF0C880B990BA5
:102ED0000E94153DF801268D378D40A151A10E9419
:102EE000CA3D0E94E43C10926D0810926C088091DB
:102EF000680890916908809366089093670820910C
:102F00004308222309F4FCC021E333E09F938F930D
:102F10007F936F93DF92DF933F932F9386E393E04A
:102F20009F938F930E941D12809168089091690869
:102F3000A0916A08B0916B082DB73EB7265F3F4F4E
:102F40000FB6F8943EBF0FBE2DBF803137E2930716
:102F5000A105B10508F4CFC080E197E2A0E0B0E0A0
:102F60002BCF8091FD07882309F41DC189E793E0E9
:102F70009F938F938EE793E09F938F930E941D12F0
:102F80000F900F900F900F90809115089091160858
:102F90008E159F0524F4F0921608E092150882E041
:102FA00080931B08A091FE07B091FF07ED91FC9163
:102FB00011970190F081E02D2CE0E934F20709F03F
:102FC000D2C01896ED91FC91199780811B969C9127
:102FD00089238083C091FE07D091FF07E881F981A2
:102FE000C084D1846091150870911608EEECCE165D
:102FF000E5E0DE0609F0A9C0072E000C880B990B4E
:103000000E94153D2E8D3F8D48A159A10E94CA3DB9
:103010000E94E43C162F072FFEECCF16F5E0DF06EA
:1030200009F08DC0B701FF0C880B990B0E94153D6C
:103030002E8D3F8D48A159A10E94CA3D0E94E43CBB
:103040001092270810922608809122089091230858
:1030500080932008909321082091FD07222309F4F2
:1030600047C021E333E09F938F937F936F930F9338
:103070001F933F932F9386E393E09F938F930E9438
:103080001D128091220890912308A0912408B091EC
:1030900025082DB73EB7265F3F4F0FB6F8943EBFC9
:1030A0000FBE2DBF803137E29307A105B105D8F0DF
:1030B00080E197E2A0E0B0E0C5CD509316084093C0
:1030C00015089DCD50935C0840935B0852CE019645
:1030D00090936D0880936C0813CC01969093270809
:1030E0008093260830CC880F991FAA1FBB1FAACD3A
:1030F0002CE233E0B8CF880F991FAA1FBB1F5CCE0C
:103100002CE233E003CF61E0C8011995CECCC801B1
:1031100019959C0190935C0880935B0897FDE3CD23
:1031200028CE61E0C80119955CCCC80119959C01B5
:10313000909316088093150897FD1BCD60CDB701BD
:10314000CE01F6011995BC017BCFCE01F601199590
:10315000182F092FC091FE07D091FF07E881F98150
:10316000C084D18459CF60E0CD01199533CFB70128
:10317000C801F5011995BC01B6CEC801F501199534
:10318000D82FD92E0091440810914508D801ED910F
:10319000FC91A084B18492CE60E0CD0119956ACEF5
:1031A00085EA93E0D6CD84E793E0E2CE85EA93E02A
:1031B00016CD84E793E02CCE81E080931B088091AC
:1031C000FE079091FF07DC01ED91FC910190F081E9
:1031D000E02DBCE0E934FB0711F50E94C20BF8CCEE
:1031E00081E0809361088091440890914508DC015A
:1031F000ED91FC910190F081E02DBCE0E934FB07FA
:1032000059F40E94C20B9ECD60E0CD011995D3CC3C
:1032100060E0CD01199589CD61E0199593CD61E00C
:103220001995D6CC2FEF3FEF5ECD2FEF3FEFA1CC1E
:103230000F931F93CF93DF938C01EB01909345087D
:10324000809344087093FF076093FE07E881F9813B
:103250000284F385E02D6AEF70E0CE01199590931A
:10326000990280939802109261088091440890918D
:103270004508DC01ED91FC910190F081E02D60E0CA
:10328000199510921B088091FE079091FF07DC01B1
:10329000ED91FC910190F081E02D60E01995F8012D
:1032A00086819E818917E1F190E090930805F801ED
:1032B000848D811106C0D80113968C918B50833078
:1032C000A0F110929C0286EA92E09F938F930E9455
:1032D0001D120F900F9086E29CE2909397028093CC
:1032E0009602F89480917A00887F846080937A00B7
:1032F0001092800080ED91E090938700809386008B
:10330000109285001092840081E18093810081E019
:1033100080936F007894DF91CF911F910F91089562
:1033200091E08F3709F0C1CFBFCF8C8D8111C9CF0C
:103330008B818B50833028F681E080939C0282ED54
:1033400092E0C3CFCF93DF93C0916F05D09170050A
:103350002097E1F02D853E858A858823E1F03F9313
:103360002F938D818F938C818F9387E292E09F932F
:103370008F930E941D128B859C859F838E831A8656
:103380000F900F900F900F900F900F901092730569
:10339000DF91CF9108958B859C852115310519F416
:1033A0009F838E83F3CF01969C878B874C815D81B1
:1033B0008417950711F41C861B86EF85F8898B8589
:1033C0009C85E80FF91F30838B859C8501969C872F
:1033D0008B872C813D818217930711F41C861B86F5
:1033E000EF85F8898B859C85E80FF91F8D85808393
:1033F000CDCFCF93DF93EC01019721F4C0915A0513
:10340000D0915B050E94D00CDF93CF932EE932E080
:103410003F932F939F938F930E94A7110F900F902C
:103420000F900F900F900F90DF91CF910C94A219F5
:10343000CF92DF92EF92FF920F931F93CF93DF9380
:10344000C0915C05D0915D05019711F0CFEFDFEFE2
:10345000D0905A05C0905B05F0906005E090610542
:1034600010915E0500915F050E94D00CDF93CF9311
:10347000CF92DF92EF92FF920F931F932AE432E0F4
:103480003F932F939F938F930E94A7118DB79EB761
:103490000C960FB6F8949EBF0FBE8DBFDF91CF91F3
:1034A0001F910F91FF90EF90DF90CF900C94A21995
:1034B0000F931F93CF93DF93182F092FEAE5F5E0C1
:1034C000C081D1810E94D00C0F931F93DF93CF93C3
:1034D0002BE732E03F932F939F938F930E94A71186
:1034E0008DB79EB708960FB6F8949EBF0FBE8DBFDE
:1034F000DF91CF911F910F910C94A219EF92FF923F
:103500000F931F93CF93DF93F82EE92EEAE5F5E0B2
:1035100012810381C081D1810E94D00CEF92FF9271
:103520000F931F93DF93CF932DE632E03F932F93BA
:103530009F938F930E94A7118DB79EB70A960FB6DF
:10354000F8949EBF0FBE8DBFDF91CF911F910F9159
:10355000FF90EF900C94A219AF92BF92CF92DF929E
:10356000EF92FF920F931F93CF93DF93C0915E056D
:10357000D0915F05019711F0CFEFDFEFB0905C05C0
:10358000A0905D05D0905A05C0905B05F090620553
:10359000E090630510916005009161050E94D00CD8
:1035A000DF93CF93AF92BF92CF92DF92EF92FF92D1
:1035B0000F931F932AE532E03F932F939F938F93AE
:1035C0000E94A7118DB79EB70E960FB6F8949EBFB6
:1035D0000FBE8DBFDF91CF911F910F91FF90EF90A4
:1035E000DF90CF90BF90AF900C94A219CF92DF9252
:1035F000EF92FF920F931F93CF93DF93D82EC92E94
:10360000EAE5F5E0F080E18014810581C281D38193
:103610000E94D00CCF92DF92EF92FF920F931F93F4
:10362000DF93CF9326E832E03F932F939F938F93BE
:103630000E94A7118DB79EB70C960FB6F8949EBF47
:103640000FBE8DBFDF91CF911F910F91FF90EF9033
:10365000DF90CF900C94A219CF93DF93EC010E94DE
:10366000D00CDF93CF9326E932E03F932F939F93C3
:103670008F930E94A7110F900F900F900F900F90B3
:103680000F90DF91CF910C94A2190F931F93CF93BA
:10369000DF93D82FC92F80910002813031F158F08B
:1036A000823009F457C0833009F46EC0DF91CF91A6
:1036B0001F910F9108950E94E30560939202709309
:1036C0009302809394029093950281E0809300028C
:1036D0008091EB04882351F38AE192E09F938F93CA
:1036E0000E941D120F900F90E1CF0E94E305009100
:1036F0009202109193022091940230919502601BE6
:10370000710B820B930B643671058105910570F284
:103710008091FC07882321F083E080930002C6CFCC
:1037200060E08AEF97E00E94AD0C0E94E305609391
:10373000920270939302809394029093950282E098
:10374000809300028091EB04882309F4AFCF81E1DC
:1037500092E0C4CF0E94E30500919202109193027F
:103760002091940230919502601B710B820B930B98
:103770006E3171058105910508F498CF61E08AEFFB
:1037800097E00E94AD0CC8CF8091FC078823B9F068
:103790008091EB04882341F08DEF91E09F938F930C
:1037A0000E941D120F900F908091FC07882339F022
:1037B00060E08AEF97E00E94AD0C1092FC078091C8
:1037C0001203882379F01091EB0481E00E94020D2E
:1037D000112341F083EF91E09F938F930E941D127C
:1037E0000F900F9010921703109216038091EB0424
:1037F000882361F0CF93DF9386EE91E09F938F93C0
:103800000E941D120F900F900F900F90E091900268
:10381000F09191028D2F9C2FDF91CF911F910F91ED
:103820001994CF92DF92EF92FF921F93CF93DF9381
:10383000E091FE07F091FF0775817F3759F48EEF15
:103840009FEFF901DF91CF911F91FF90EF90DF90F3
:10385000CF901994E9017A01162F6C0180919B0297
:1038600080931203882329F080E00E94020D1092B9
:10387000FB071092FC078AEF97E00E94CD0C8111A4
:1038800016C081E08093FC078091EB04882341F00F
:1038900083ED91E09F938F930E941D120F900F90E4
:1038A00061E08AEF97E00E94AD0C1092FB07D09286
:1038B0001003C0920F03F0921703E09216031093C7
:1038C0000E0310931103D0939102C0939002DF91E5
:1038D000CF911F91FF90EF90DF90CF900895AC01B2
:1038E000EBE5F3E090E080E022E330E0608171817D
:1038F0006417750761F1672B21F42233310509F450
:103900009C01019638968233910581F7C9012233D3
:10391000310559F484EC91E09F938F930E941D121E
:103920000F900F908FEF9FEF0895FC0123E0EE0FB3
:10393000FF1F2A95E1F7E55AFC4F5183408320E8A9
:103940002283138214821582168217820895281703
:10395000390759F30895BF92CF92DF92EF92FF9209
:103960000F931F93CF93DF9300D01F921F92CDB779
:10397000DEB718161906F4F5B42E8B016D317105FA
:103980000CF463C040E08038910524F0292F206CAE
:10399000298341E0E1E0F0E0EC0FFD1FE40FF11DB1
:1039A0008083A1E0A40F21E030E02C0F3D1F2A0FFF
:1039B000311DD901E3E0E40F82E0840F90E000388C
:1039C00011053CF52DED2C9360E8B11001C060E0CD
:1039D0004E2FA1E0B0E0AC0FBD1F8A0F9B1F602BE4
:1039E000FC01608324E0BE016F5F7F4F80E498E0BC
:1039F0000E947A0C0F900F900F900F900F90DF9114
:103A0000CF911F910F91FF90EF90DF90CF90BF90DB
:103A1000089520EC2C93202F2F7730E8B11001C0AF
:103A200030E061E070E06C0F7D1F860F971F232B45
:103A3000DC012C934C5F9B012E0F311DF901000F0F
:103A4000012F001F110B0083CDCF0E946F1C97FD2B
:103A5000D1CFC12CD12C7601C394002E04C0CC0C44
:103A6000DD1CEE1CFF1C0A94D2F733E0880F991F6F
:103A70003A95E1F7FC01E55AFC4F44815581668196
:103A80007781BB2001F1C42AD52AE62AF72AC4820D
:103A9000D582E682F78221E0053011056CF022E044
:103AA000093011054CF024E00D3011052CF028E010
:103AB000053111050CF020E1FC01E55AFC4F838132
:103AC000282B238397CFC094D094E094F094C42201
:103AD000D522E622F722DBCFCF92DF92EF92FF9240
:103AE0001F93CF93DF936C01162FC42FD0E0E22EEB
:103AF000F12CEC16FD064CF0412F4170BE01C601C1
:103B00000E94AB1C16952196F4CFDF91CF911F91A7
:103B1000FF90EF90DF90CF9008950F931F93CF9376
:103B20008C016F77C42FC795CC27C795C60F6C2F14
:103B30000E94700D0115110581F4EBE5F3E0CF77DC
:103B4000828180788C2B8283389684E0EB3EF80764
:103B5000B9F7CF911F910F910895C8010E946F1C72
:103B600097FDF7CF23E0880F991F2A95E1F7FC0115
:103B7000E55AFC4FC283EDCF85ED8093BC00809168
:103B8000320590913305A0913405B0913505079623
:103B9000A11DB11D23E0B695A795979587952A9508
:103BA000D1F72091BC0024FD03C010923005089588
:103BB000409132055091330560913405709135057F
:103BC000452B462B472B69F30097A105B10541F022
:103BD00025E32A95F1F700000197A109B109E1CF8A
:103BE000809131050C943A09FF920F931F93CF9364
:103BF000DF93EC01F62E08811981C8010E94E33B96
:103C0000F81621F06F2DC8010E94EB3BCE01DF9129
:103C1000CF911F910F91FF900895CF92DF92EF9275
:103C2000FF920F931F93CF93DF931F921F92CDB7F5
:103C3000DEB76C017C0110E000E01A830983F70114
:103C400061917F01CE0101960E94F41D0F5F1F4F0D
:103C50000C30110591F7C6010F900F90DF91CF91B5
:103C60001F910F91FF90EF90DF90CF9008952F92CA
:103C70003F924F925F926F927F928F929F92AF92FC
:103C8000BF92CF92DF92EF92FF920F931F93CF9349
:103C9000DF93CDB7DEB76B970FB6F894DEBF0FBEDC
:103CA000CDBF8C01EDB6FEB6FB8EEA8E90EBE92E11
:103CB00099E0F92EDD24D394C8010E94D506892B02
:103CC00009F498C380918608823371F480910905C4
:103CD000882331F0FF92EF920E941D120F900F90F7
:103CE0001092860810928708C8010E94B3068C3390
:103CF00039F4D09287081092860810928808DCCF99
:103D00008E3311F00C94D729E0918608F0E0EA5741
:103D1000F74F1282B02EA12E80910905882371F0F1
:103D200088E898E09F938F9385EA99E09F938F931B
:103D30000E941D120F900F900F900F90A8E8B8E00E
:103D40003D908CE3F82E3F14D9F320E23216C1F3F4
:103D5000FD011A8219821C821B821E821D82188616
:103D60001F821A8619861C861B861E861D86188A47
:103D70001F861A8A198A1C8A1B8A9D01F12C90E0E1
:103D800080E071E0D12CBAE0EB2ED9016C91723059
:103D900009F476C0733009F47DC0713009F077C042
:103DA000603209F474C0662319F06E3309F05BC009
:103DB000ED2CF12C71E5371611F40C94FE267315D9
:103DC00008F414C181E3831508F4C7C090E33916E1
:103DD00008F07AC7A3E23A1611F40C946C29A315E3
:103DE00008F497C0332009F403C3B1E23B1609F489
:103DF000D5C7FF92EF921F923F9289E898E09F9378
:103E00008F930E941D12DE0111965D010F900F909D
:103E10000F900F900F900F90D12CC12C99E7892E05
:103E200098E0992ECE14DF0409F488C2F501808150
:103E30009181F2E0AF0EB11C9F938F939F938F936C
:103E4000DF92CF929F928F920E941D122FEFC21A83
:103E5000D20A6DB77EB7685F7F4F0FB6F8947EBF0A
:103E60000FBE6DBFDFCF72E04AE0D4128ECF4AE0C2
:103E7000E42EF12C9FCFF12C90E080E073E0F4CFA2
:103E80006D32C9F7FF24F39490E080E073E02F5F78
:103E90003F4FEACF40ED460F4A3060F4E89EA00164
:103EA000E99E500D1124A62FA053BB0BCD01840F0A
:103EB000951FEDCF4FE9460F4A3108F460524FEBA2
:103EC000460F4A3150F4AC01A5E0440F551FAA95A6
:103ED000E1F7840F951F8627DACF4FEF5FEFF110E0
:103EE00002C041E050E0AD2DB0E0AA0FBB1F61E081
:103EF00070E06C0F7D1FA60FB71F489FB001499F50
:103F0000700D589F700D11246D937C93D39471E0C4
:103F1000ABCFEBE23E1609F411C2FDE23F1269CFCE
:103F200071E07D1508F40AC2E980FA80F7FC06C248
:103F300061E0E114F10411F00C94722990E080E04A
:103F40000E94700DEBE5F3E08BEE94E0118210829D
:103F500038968E179F07D1F74BC226E4321611F41C
:103F60000C9489292315E8F034E4331611F40C94E9
:103F70000028331508F446C742E434123ACFBE0194
:103F80006F5F7F4FC8010E94D20D882309F4D6C10C
:103F90006B81683008F46AC68FEF9FEF0E94AC1AFD
:103FA00027C26DE4361609F443C570E5371609F4E7
:103FB0003FC587E438121DCF94E09D1598F0D110CD
:103FC0000C94BB2981E090E090935A0380935903AD
:103FD00030E020E050E040E070E060E090E080E021
:103FE0000E94C80A82EA98E00C942A2A92E63916BE
:103FF00009F4DFC4931508F47CC0A6E53A1609F469
:1040000002C6A31508F44BC0B3E53B1609F427C458
:104010003B1608F436C6E4E53E12EBCE81E0E81626
:10402000F10409F4C4C20CF0A7C2EF2809F086C15C
:10403000E0900405F090050580E073E6C72E78E077
:10404000D72EE114F10409F407C4F7018281082E88
:10405000000C990B892F881F8827881F1F928F9328
:1040600083811F928F9385818F9384818F93818128
:104070008F9380818F93DF92CF92AF92BF920E94F5
:10408000A711D7011696ED90FC9081E0EDB7FEB731
:104090003C960FB6F894FEBF0FBEEDBFD2CFFAE547
:1040A0003F1609F452C321E6321609F429C237E556
:1040B00033129FCEBE016F5F7F4FC8010E94D20DA9
:1040C000882309F43BC189819A81A1E028E13AE182
:1040D0004AE857E06B81DA1289C59C012150310909
:1040E0002F3F374208F474C58FEF9FEF0E94F919F4
:1040F0007FC147E6341611F40C94CB29431508F41C
:1041000093C065E6361609F45FC7631508F44DC120
:1041100073E637126ECE80915F0890916008892B0C
:1041200099F48091440890914508DC0196966D9130
:104130007C919797ED91FC910084F185E02D199584
:104140009093600880935F08D0905F08C0906008EB
:1041500080915D0890915E08892B91F480914408CC
:1041600090914508FC0166A177A10190F081E02DB6
:104170000084F185E02D199590935E0880935D0889
:10418000F0905D08E0905E0880916108813009F050
:104190000CC6809144089091450860915B0870912D
:1041A0005C08DC01ED91FC910084F185E02D19950E
:1041B000CF92DF92EF92FF929F938F9387E299E0E5
:1041C0009F938F931F930F930E94A711EDB7FEB794
:1041D0003A960FB6F894FEBF0FBEEDBF809161080E
:1041E00020E030E08130D9F460915B0870915C0888
:1041F000072E000C880B990BFAE0660F771F881FBB
:10420000991FFA95D1F7E0914408F091450826A14D
:1042100037A1032E000C440B550B0E94723E3F93B6
:104220002F938FE199E078C584E7381609F46EC0C2
:1042300097E7391609F47DC3A3E73A12DACD80E493
:1042400098E00E94CD0C91E0813009F090E01F923F
:104250009F9388E199E09F938F931F930F930E9400
:10426000A71180EE98E09F938F938091EF048F9336
:104270008091EE048F9388EE98E09F938F938DEE5C
:1042800098E09F938F9383EF98E09F938F931F9372
:104290000F930E94A711E0900405F09005052DB73B
:1042A0003EB72E5E3F4F0FB6F8943EBF0FBE2DBFF8
:1042B000E2E8CE2EE6E0DE2EE114F10409F478C542
:1042C000D70112968C911297082E000C990B892F0A
:1042D000881F8827881F1F928F9311968C911197A2
:1042E0008F938C918F93DF92CF92AF92BF920E9467
:1042F000A711F701E680F7802DB73EB7285F3F4F43
:104300000FB6F8943EBF0FBE2DBFD6CFB4E0DB1280
:1043100019C08B819C816D817E814F8158859B0165
:104320002F5F3F4F2038310548F46F3F7607A1F0EB
:104330006115710599F0B901009781F484E798E05F
:104340000C942A2AE3E0DE12F9CF89819A816B81ED
:104350007C814D815E81E3CF61E070E042305105A8
:1043600068F741700E948D1D34E0E32E82E999E0E8
:10437000DE100C942A2A88858F938F818F938E81EB
:104380008F938D818F938A818F9389818F9387E912
:1043900099E09F938F931F930F930E94A7112DB7BE
:1043A0003EB7265F3F4F0C945F2B32E0E316F104DB
:1043B00009F091C06B817C81862F807E803861F40A
:1043C000CB01880F991F8E7162956170682B24E074
:1043D00040E089819A810AC0803A51F489819A81AA
:1043E0002CE049E064FF02C028E045E00E946C1D1B
:1043F000109287088091F5049091F604009709F4D3
:104400004AC02091F3043091F404232B21F49093BB
:10441000F4048093F304E090F304F090F404D701E3
:1044200012962C9130E0F901E059FA4F8491F9018C
:10443000E354F64FD490F901E95CF54FC490CC20D9
:1044400009F4C7C781110E94BD07EC2DF0E0EE0F03
:10445000FF1FE35EF54FA591B491EC91DE2231E0B0
:1044600020E009F430E0832F922F9C01B1E02B274C
:10447000322F3170F701258144813413ADC72111EA
:104480001582E091F304F091F40486819781909372
:10449000F4048093F304EA8CFB8C0FB6F894FEBE10
:1044A0000FBEEDBE6B960FB6F894DEBF0FBECDBF4C
:1044B000DF91CF911F910F91FF90EF90DF90CF9000
:1044C000BF90AF909F908F907F906F905F904F9034
:1044D0003F902F90089543E0E416F10409F088CF4F
:1044E0008B819C818E3D910521F424E14DE06D810D
:1044F00070CF2CE145E18F3D910509F079CFF7CFE1
:1045000062E0D61231C089819A8101979C0197FFA0
:1045100002C02D5F3F4F35952795359527952F5F25
:104520003F4F64E070E00E943C3E682FE1E0C9012B
:1045300091702817390709F001CF862F837068130F
:10454000FDCEF0E0EE0FFF1FEC0FFD1F4181528109
:10455000CA01817099274817590709F0EFCE4170B9
:10456000C9010E94050D44CF73E0D712E7CE29811F
:104570003A816B81E2E0DBCFA2E0EA16F104A1F11F
:10458000B3E0EB16F10409F0D9CEFD80CB80DC80DE
:1045900089819A810E94ED0DFC01D582C482F3824B
:1045A00012828EE498E0EF2B09F054C7C7CE498100
:1045B0005A812091040530910505F901B0E0A0E091
:1045C000309709F4BBCE608171818681978146174F
:1045D000570709F429C7DF01FC01F2CF16968C9327
:1045E000169717969C9328C789819A81E0900405B5
:1045F000F0900505E114F10409F4A0CED7012D9146
:104600003C9111978217930709F430C71696ED90E5
:10461000FC90F0CF8F7782833BC71F9280E38F930C
:104620001F921F921F9232E0732E7F924F9244EF9F
:10463000A42E47E0B42EBF92AF920E949A3A1F92E6
:1046400089E78F931F928EEF8F931F927F924F92E5
:10465000BF92AF920E949A3A1F9280E28F931F926C
:104660001F921F927F924F92BF92AF920E949A3AEE
:104670001F9280EA8F931F921F921F927F924F92F8
:10468000BF92AF920E949A3A80910005682A609288
:1046900000056DB77EB76C5D7F4F0FB6F8947EBF97
:1046A0000FBE6DBFC80CD91CDF92CF921F923F92F4
:1046B0008FE398E09F938F930E941D121D8A1E8A9C
:1046C0001F8A852D8F70880F880F8A5F8D8BC88E0B
:1046D000D98E0F900F900F900F900F900F907FEF4B
:1046E000C7167FE0D70611F480E18F8B81E08093BD
:1046F000360540925805109237051092590545E04D
:1047000050E0BE016B5E7F4F88EE97E00E946C0A1E
:104710000E945B09882309F465C71F928F938DE27D
:1047200098E09F938F930E941D120F900F900F900F
:104730000F9058C741E0892809F440E0D70113964B
:104740006C91C6010E94050D4DC7F1E0EF16F10412
:1047500009F466C0B4F5EF2809F0F0CDE090F70455
:10476000F090F80480E024EEC22E27E0D22EE1146F
:10477000F10409F471C0D7018C911F928F931396A5
:104780008C9113971F928F9312968C9112971F9270
:104790008F9311968C911F928F93DF92CF92AF924D
:1047A000BF920E94A711F701E480F58081E02DB748
:1047B0003EB7245F3F4F0FB6F8943EBF0FBE2DBFEC
:1047C000D6CF32E0E316F104A9F043E0E416F10499
:1047D00009F0B4CD4D815E816B817C8121E030E0B8
:1047E00089819A810E947B0E892B09F4A7CD8AEFDB
:1047F00097E030C689819A81E090F704F090F80440
:10480000E114F10409F49ACDD70111962C91119776
:104810002817190609F421C71496ED90FC90F0CFE3
:1048200049815A812091F7043091F804F901B0E0F0
:10483000A0E0309709F482CD61818481958164176D
:10484000150609F443C7DF01FC01F3CF14968C93DE
:10485000149715969C9342C78111CACD6FCD31E054
:10486000E316F10409F448C043E0E416F104B1F1A1
:10487000EF2809F063CDE090F504F090F604E11420
:10488000F10409F45BCD9CECC92E97E0D92ED70139
:1048900013968C9113971F928F9312968C91129767
:1048A0001F928F9311968C9111978F938C918F9368
:1048B000DF92CF92AF92BF920E94A711F701E680DC
:1048C000F7802DB73EB7265F3F4F0FB6F8943EBF37
:1048D0000FBE2DBFE114F104D1F68ACD4D815E816A
:1048E0006B817C8189819A810E94200E892B09F439
:1048F00025CD8FED97E0AEC549815A812091F50411
:104900003091F604F901B0E0A0E0309709F416CD3B
:1049100060817181868197814617570709F4E4C643
:10492000DF01FC01F2CF16968C93169717969C9395
:10493000E3C65D818B819C8129813A8140E02038EA
:10494000310524F0432F406C4D8B41E0E5E1F0E070
:10495000EC0FFD1FE40FF11D20830197E1E0E40F50
:1049600065E170E06C0F7D1F6E0F711DFB01937090
:104970009C6E9083E2E0E40FA5E1B0E0AC0FBD1FB8
:10498000AE0FB11DFD018083E3E0E40F85E1E82E69
:10499000F12CEC0EFD1EEE0EF11CF70150834C5F66
:1049A00024E0BE016B5E7F4F80E498E00E947A0CA9
:1049B0001FCD6F8178858B819C81E981FA812D8162
:1049C000277040E0E038F10524F03F2F306C3D8B3C
:1049D00041E0A5E1B0E0AC0FBD1FA40FB11DEC9309
:1049E0000197E1E0E40FA5E1B0E0AC0FBD1FAE0F11
:1049F000B11DFD019370986E9083E3E0E40FA2E097
:104A0000A40FB5E1EB2EF12CEC0EFD1EEA0EF11C0D
:104A1000D7018C9388EF672B09F480EF65E170E094
:104A20006C0F7D1F6E0F711DFB01822B8083B7CF32
:104A30001A8219821C821B821E821D8218861F8286
:104A40001A8619861C861B861E861D86188A1F8656
:104A50001A8A198A1C8A1B8A30E020E040E051E063
:104A600001C052E04A3088F49081523009F466C0A7
:104A7000533009F467C0513009F083C0903209F413
:104A800080C0992311F09E3361F722242A94240ECA
:104A900009F454CC6DB67EB6E22CF12C2DB73EB79E
:104AA0002E193F090FB6F8943EBF0FBE2DBF6DB74C
:104AB0007EB76F5F7F4F2B016E0173E0C70ED11C75
:104AC000520130E020E049018FEF881A980AD601A0
:104AD0008D919D916D01F50181935F0140910905D3
:104AE0004423B1F099279F938F939F938F933F9384
:104AF0002F932DE739E03F932F930E941D126DB73E
:104B00007EB7685F7F4F0FB6F8947EBF0FBE6DBF54
:104B100094018E149F04BCF27DE480E498E0371683
:104B200011F08AEF97E023E0422DB2010E947A0C47
:104B30000FB6F8947EBE0FBE6DBE5ACC30E020E0BA
:104B400053E090CF80ED890F8A3050F4A4E0220F1B
:104B5000331FAA95E1F7A92FA053BB0BCD010FC0BE
:104B60008FEB890F863078F474E0220F331F7A952B
:104B7000E1F7265F3F4F692F6154770BCB01280F78
:104B8000391F31966FCF8FE9890F863058F464E072
:104B9000220F331F6A95E1F7265F3F4FA92FA156D9
:104BA000BB0BDCCF9E3311F09F7D79F4A42FB0E0D6
:104BB000AA0FBB1FEE24E394F12CEC0EFD1EAE0DEC
:104BC000BF1D2D933C934F5F4ACF4FEF5FEF5DCFFB
:104BD0008038910574F49093F2048093F10429EFE6
:104BE00039E143EB57E060E090E080E00E94111C67
:104BF000FFCB906C9093F2048093F10429EF39E19C
:104C000042E957E0F0CFE2E0DE1211C0BE016F5F73
:104C10007F4FC8010E94D20D28E53AE140E657E0F7
:104C20006B81882309F48ACB89819A81DFCFF3E0F5
:104C3000DF1284CBBE016F5F7F4FC8010E94D20D8F
:104C4000882309F47BCB6B81683028F08FEF9FEFCE
:104C50000E947E1ACDCB8D819E8148E557E0892B3D
:104C600011F440E557E02EE73AE1DECF8D819E81D9
:104C700049E457E0892B11F442E457E02CEA3AE189
:104C8000D3CFA3E0EA2EDE100FC0BE016F5F7F4FCF
:104C9000C8010E94D20D26EF3AE14BE157E060E0F7
:104CA000882309F44BCBC0CFD11048CBBE016F5F36
:104CB0007F4FC8010E94D20D2CE23BE14DE856E047
:104CC000882309F43BCB8FCFFF24F394FD1408F421
:104CD00035CB21E33212F12C80E00E94020DDD2061
:104CE00049F089819A81209108052223E1F0823ED2
:104CF000974829F16F2D80E498E00E94AD0C6F2D4C
:104D00008AEF97E00E94AD0C41E334121092F00458
:104D10001F923F9286E799E09F938F931F930F9383
:104D20000E94A7118EC28A3E6BE8960749F18B3428
:104D30007CE29707D9F0823E974809F0FFCA6F2DB1
:104D400080E498E00E94AD0C6F2D8AEF97E00E94FE
:104D5000AD0CE1E38DE499E03E127CC381E00E945A
:104D6000020D1F923F9283E599E0D6CF6F2D80E42C
:104D700098E00E94AD0C1F923F928AE699E0CCCF5A
:104D80006F2D8AEF97E00E94AD0CB1E33B121092B9
:104D9000F0041F923F928EE599E0BECF41E061E0C2
:104DA00090E080E00E948D1D23CB80E090E000CA5F
:104DB000E090F704F090F80477E7C72E76E0D72E5E
:104DC000E114F104D9F0D7018C911F928F931196C1
:104DD0008C911F928F93DF92CF92AF92BF920E94DD
:104DE000A711F701E480F5802DB73EB7285F3F4F4C
:104DF0000FB6F8943EBF0FBE2DBFE2CFC8010E9490
:104E0000B711F6CA8CE090E09093ED048093EC0427
:104E1000E0900405F0900505E0910605F091070586
:104E200017821682E114F104C1F1A090EC04B09055
:104E3000ED04C5010296D70119969C938E9318979D
:104E40004701B6E08B0E911C6701AE18BF08C50183
:104E50008C0D9D1D9E8B8D8BF60161916F01CE0196
:104E600045960E94F41DC814D90489F78091EC047A
:104E70009091ED0406969093ED048093EC04D70195
:104E80001696ED90FC90E0910605F091070586815D
:104E90009781019697838683C5CFE090F504F090C3
:104EA000F604E0910605F091070511861086E114DD
:104EB000F10489F1A090EC04B090ED044701B4E056
:104EC0008B0E911C6701AE18BF08C5018C0D9D1D8E
:104ED0009E8B8D8BF60161916F01CE0145960E94EC
:104EE000F41D8C149D0489F78091EC049091ED04DD
:104EF00004969093ED048093EC04D7011696ED9000
:104F0000FC90E0910605F09107058085918501965A
:104F100091878087CCCFE090F704F090F804E0917F
:104F20000605F091070513861286E114F10499F144
:104F3000A090EC04B090ED04F701B782A68247017F
:104F4000F4E08F0E911C6701AE18BF08C5018C0DEF
:104F50009D1D9E8B8D8BD6016D916D01CE01459669
:104F60000E94F41DC814D90489F78091EC04909133
:104F7000ED0404969093ED048093EC04F701E48033
:104F8000F580E0910605F0910705828593850196ED
:104F900093878287CACF80910605909107050E946A
:104FA0000D1EE0910605F091070583858F9382859C
:104FB0008F9381858F9380858F9387818F9386814F
:104FC0008F9382ED98E0E5C9E0900605F090070523
:104FD0006BE672E0C7010E94EF3ED70117961C9264
:104FE0001E92169719961C921E9218971B961C9249
:104FF0001E921A97C7010E940D1E8DEC98E02AC2DE
:10500000E114F10409F4F4C9CB80DC809924939471
:10501000B1E0CB16D10431F0E1E6CE16EAE0DE06CF
:1050200009F0912C89819A818932FCE09F0709F46B
:10503000C1C0ECF4833331ED930709F462C054F43A
:1050400088359D4B09F0D4C98CE18093060289E133
:1050500096E000C2811574EE970709F4FCC08F3208
:10506000974E09F0C5C981E08093F004C1C9883D1D
:10507000B4E69B0709F42AC164F48A3EF6E29F076E
:1050800009F4E6C081329B4309F0B2C99092F90459
:10509000AFC98E3735E6930709F480C0853196464F
:1050A00009F0A6C988E198E00FB6F894A895809316
:1050B00060000FBE909360000E94D0084B015C011D
:1050C00042E3C42ED12CE12CF12C0E94D0086819A7
:1050D00079098A099B09683E734081059105A8F307
:1050E000B1E0CB1AD108E108F108E8EE8E0EE3E05A
:1050F0009E1EA11CB11CC114D104E104F10429F7C6
:1051000077C95BE5E52E53E0F52ED12CC12C6FEE6F
:10511000862E65E0962ED7012D913C91121613062E
:10512000F4F4BFEFCB1ADB0AF701828196E487FF24
:1051300092E51F929F938F771F928F933F932F93A8
:105140009F928F92AF92BF920E94A7112DB73EB748
:10515000265F3F4F0FB6F8943EBF0FBE2DBF38E01D
:10516000E30EF11C4BEEE41644E0F406A1F61F92A8
:1051700082E38F93DF92CF928EED95E09F938F9392
:105180001F930F930E94A7116DB77EB7685F7F4F83
:105190000FB6F8947EBF0FBE6DBF2AC92FB7F89423
:1051A00080910402909105022FBF9F938F9387E611
:1051B00096E0B2CD73E0E716F1048CF185E1C816F4
:1051C0008BE6D80659F48D819E8180932C089093AC
:1051D0002D089F938F9387E596E09ECD9AE6C9169A
:1051E0009EE3D90659F48D819E8180933C0890936B
:1051F0003D089F938F9389E496E08ECDA4E7CA166D
:10520000AFE3DA0609F0F4C88D819E8180933E08F1
:1052100090933F089F938F938BE396E07DCD8BE235
:1052200096E0911002C087E296E09F938F938EE202
:1052300096E09F938F931F930F930E94A7119092D4
:10524000EB040F900F900F900F900F900F90D0C81D
:1052500090920905CDC8EA94EF2809F4C9C88FECEB
:1052600095E09F938F930E941D120F900F90F12C49
:10527000E12C3FEBA32E35E0B32EEC14FD040CF033
:10528000B7C8C7010E94E33B782E4701BFEF8B1AD6
:105290009B0A90E00E94E13E892B11F480E201C05C
:1052A000872D1F928F931F927F92FF92EF92BF9252
:1052B000AF920E941D126DB77EB7685F7F4F0FB629
:1052C000F8947EBF0FBE6DBF7401D7CF80E8809386
:1052D00006028AE096E0BEC01F9282E38F9385ECBF
:1052E00098E01ACDC7010E94700DC7010E946F1C83
:1052F00097FD0AC023E0880F991F2A95E1F7FC016A
:10530000E55AFC4F1182108261E0C7010E94700DC6
:105310006FC8809109058823F1F08D819E81892BCA
:1053200039F18BEA98E09F938F938C818F938B81D7
:105330008F938A818F9389818F938EEA98E09F93D0
:105340008F930E941D128DB79EB708960FB6F894E2
:105350009EBF0FBE8DBF41E08D819E81019709F0F8
:1053600040E06B817C8189819A810E94AB1C40C89E
:1053700087EA98E0D8CF2F8138854D815E816B8197
:105380007C8189819A81E1E0F0E0F0935A03E09317
:1053900059030C94F01F10925A03109259038091F4
:1053A00068008B7F809368008DE998E053C09091EE
:1053B0008708992311F40C945C1EE091860891E013
:1053C0009E0F90938608F0E0EA57F74F82830C9483
:1053D0005C1E90E080E049C82F3718F42F5F2583CA
:1053E00050C8348315820115110509F44AC820817B
:1053F0003181892BB9F481E53F932F931F928F93CD
:1054000086EB95E09F938F931F930F930E94A711B4
:105410002DB73EB7285F3F4F0FB6F8943EBF0FBE83
:105420002DBF2FC881E7E8CF2E173F0709F0D6C858
:105430008093040590930505CF010E945A3B80910B
:105440000205909103050196909303058093020550
:105450008EE598E09F938F931F930F930E94A7115F
:105460000F900F900F900F900C94F8211496CD9000
:10547000DC90BFEFCB16DB0609F4CAC08B809C80A2
:10548000F70182818114910409F4C4C88068828381
:10549000F701528056FE4EC98114910421F0838099
:1054A000082C000C9908F52DFF733F2EBF2EB294E7
:1054B0006FE0B6228091010590E00B2C02C095951B
:1054C00087950A94E2F780FD8DC08091000590E0F9
:1054D0000B2C02C0959587950A94E2F750E4452E6F
:1054E0004B0C80FDDFC88091F407811119C0109228
:1054F000FF041092FE0410923705109259050E9485
:105500001C098CEC95E09093FD048093FC048DECD9
:1055100095E09093FB048093FA0481E08093F40774
:105520008091F6079091F707A091F807B091F907DD
:1055300081349244AF40B10590F08091F50781111C
:105540000EC080E492E4AFE0B0E08093F607909361
:10555000F707A093F807B093F9071092B80080916D
:10556000F407811115C01092FF041092FE040E94EE
:105570001C098CEC95E09093FD048093FC048DEC69
:1055800095E09093FB048093FA0481E08093F40704
:1055900081E08093360540925805109237051092AD
:1055A00059050E945B0921E030E0390101C0660C19
:1055B000BA94EAF7882309F430C81F928F931F9298
:1055C0004F928AE098E09F938F930E941D128091E2
:1055D0000105682A609201050F900F900F900F90BF
:1055E0000F900F90E0910605F09107058681978155
:1055F000181619066CF4F70180859185181619069E
:105600003CF462819E8B8D8BCE0145960E94F41DE9
:10561000D70112968C911297082E000C990B892FA6
:10562000881F8827881F1F928F9311968C9111973E
:105630008F938C918F9383E598E09F938F931F9323
:105640000F930E94A711EDB7FEB738960FB6F894E6
:10565000FEBF0FBEEDBF0C94F82181E02B813C8191
:10566000121613060CF080E0F701808363816170ED
:10567000682782810E942408D70116968D919C91FB
:105680001816190644F49E8B8D8BF7016081CE01AC
:1056900045960E94F41D8C818F938B818F938A8114
:1056A0008F9389818F938FEF97E09F938F931F93B1
:1056B0000F930E94A7112DB73EB7285F3F4F0FB63B
:1056C000F8943EBF0FBE2DBF0C94F8212E173F0754
:1056D00009F0BCC88093F7049093F804CF010E94AE
:1056E0005A3B85EF97E0B6CE2E173F0709F01BC94E
:1056F0008093F5049093F6048091F3049091F40460
:10570000E817F90731F4868197819093F404809328
:10571000F304CF010E945A3B8AED97E09BCECF93D2
:10572000DF931F92CDB7DEB7FC01268521114CC057
:1057300041892089DC01A40FB11DE22FF0E0E15E78
:10574000FD4F16963C915081352359F432E0FC010F
:10575000328B2F5F293059F0208B0F90DF91CF9142
:10576000089531E0FC01328B2F5F2930A9F7108AB0
:105770004F5F418B2485421780F3118A2785268746
:105780002585211152C02081DC011696211150C0BF
:1057900023814CE152E0211102C049E152E0FA01BB
:1057A00020813181FC0137832683FA012281129600
:1057B0002C9323E0FC012487158621812A3F68F67B
:1057C00021812F5F2183C9CF31E0328B2150268781
:1057D0002091BC083091BD08CE01019621153105FC
:1057E000F9F0821B930B469797FD10C0209104029D
:1057F00030910502821793070CF0AFCF909305020A
:10580000809304020F90DF91CF91089590E080E0A3
:105810002091040230910502821793077CF39DCFFB
:105820002091090230910A02DCCF2150258795CFC3
:10583000739626E001900D922A95E1F7FC01218DE7
:105840002487228D25871082118287CFCF93DF9303
:1058500090915208E92FF0E0ED5EFD4F608180915C
:105860009B02C62F811106C0E0910C08F0E0ED5EAE
:10587000FD4FC081A0914408B0914508ED91FC9185
:1058800011970280F381E02D8BE0ED3DF80709F0E0
:1058900042C180919C02811112C11C96ED91FC9134
:1058A0001D978081662309F449C01E969C911E971E
:1058B000892B80835C968C915C97811168C1A09143
:1058C000FE07B091FF07ED91FC9111970280F381E3
:1058D000E02D8BE0ED3DF80709F00AC11C96ED9133
:1058E000FC911D978081CC2309F4D4C01E969C9115
:1058F0001E97892B80835C968C915C9781113DC1AA
:1059000090915208E92FF0E0E35FFD4F9081909372
:105910005208E0910C08F0E0E35FFD4F8081809336
:105920000C08953009F4E8C0853009F4EEC0809188
:105930002808811118C0DF91CF9108951F969C917E
:105940001F97892380835C968C915C97882309F448
:10595000B6CF5096ED91FC915197808152969C91D3
:10596000892B8083ACCF8091FB07873008F019C169
:10597000C091FE07D091FF07E881F9810680F78189
:10598000E02D88E0E03AF80709F0D4C18D8130E0DD
:1059900020E08F3719F10E948308BC014AA15BA166
:1059A0009C01241B350B37FF03C03195219531092C
:1059B0008E818F3799F0E88DF98D90818A8D9823AB
:1059C00069F4E885F98580819A85892339F064171F
:1059D000750709F4D0C1319521953109809157039C
:1059E0008F5F8093570380912E0890912F08821724
:1059F000930724F430932F0820932E084091380801
:105A00005091390860913A0870913B0880912A08BA
:105A100090912B08821793070CF0EDC080919A02A9
:105A2000882339F0809158038F5F80935803109238
:105A30009A02452B462B472B09F07DCF3FB7F894B0
:105A40008091080390910903A0910A03B0910B0380
:105A500026B5A89B05C02F3F19F00196A11DB11DC9
:105A60003FBFBA2FA92F982F8827820F911DA11D04
:105A7000B11D880F991FAA1FBB1F880F991FAA1F4E
:105A8000BB1F8093380890933908A0933A08B093CD
:105A90003B0851CF1F969C911F97892380835C966A
:105AA0008C915C97882309F42BCF5096ED91FC9153
:105AB0005197808152969C91892B808321CF139698
:105AC0008C918B3009F487C08C3009F4CFC08D30B5
:105AD00009F420C1A091FE07B091FF07ED91FC9160
